{
  "_format": "hh-sol-artifact-1",
  "contractName": "Campaign",
  "sourceName": "contracts/CrowdFunding.sol",
  "abi": [
    {
      "inputs": [
        {
          "internalType": "string",
          "name": "_title",
          "type": "string"
        },
        {
          "internalType": "string",
          "name": "_story",
          "type": "string"
        },
        {
          "internalType": "string",
          "name": "_category",
          "type": "string"
        },
        {
          "internalType": "uint256",
          "name": "_requiredAmount",
          "type": "uint256"
        },
        {
          "internalType": "string",
          "name": "_image",
          "type": "string"
        }
      ],
      "stateMutability": "nonpayable",
      "type": "constructor"
    },
    {
      "anonymous": false,
      "inputs": [
        {
          "indexed": true,
          "internalType": "address",
          "name": "donar",
          "type": "address"
        },
        {
          "indexed": false,
          "internalType": "uint256",
          "name": "amount",
          "type": "uint256"
        },
        {
          "indexed": false,
          "internalType": "uint256",
          "name": "timestamp",
          "type": "uint256"
        }
      ],
      "name": "donated",
      "type": "event"
    },
    {
      "inputs": [],
      "name": "category",
      "outputs": [
        {
          "internalType": "string",
          "name": "",
          "type": "string"
        }
      ],
      "stateMutability": "view",
      "type": "function"
    },
    {
      "inputs": [],
      "name": "donate",
      "outputs": [],
      "stateMutability": "payable",
      "type": "function"
    },
    {
      "inputs": [],
      "name": "image",
      "outputs": [
        {
          "internalType": "string",
          "name": "",
          "type": "string"
        }
      ],
      "stateMutability": "view",
      "type": "function"
    },
    {
      "inputs": [],
      "name": "owner",
      "outputs": [
        {
          "internalType": "address payable",
          "name": "",
          "type": "address"
        }
      ],
      "stateMutability": "view",
      "type": "function"
    },
    {
      "inputs": [],
      "name": "receivedAmount",
      "outputs": [
        {
          "internalType": "uint256",
          "name": "",
          "type": "uint256"
        }
      ],
      "stateMutability": "view",
      "type": "function"
    },
    {
      "inputs": [],
      "name": "requiredAmount",
      "outputs": [
        {
          "internalType": "uint256",
          "name": "",
          "type": "uint256"
        }
      ],
      "stateMutability": "view",
      "type": "function"
    },
    {
      "inputs": [],
      "name": "story",
      "outputs": [
        {
          "internalType": "string",
          "name": "",
          "type": "string"
        }
      ],
      "stateMutability": "view",
      "type": "function"
    },
    {
      "inputs": [],
      "name": "title",
      "outputs": [
        {
          "internalType": "string",
          "name": "",
          "type": "string"
        }
      ],
      "stateMutability": "view",
      "type": "function"
    }
  ],
  "bytecode": "0x60806040523480156200001157600080fd5b5060405162000d4c38038062000d4c833981810160405281019062000037919062000376565b84600090805190602001906200004f929190620000ee565b508160048190555083600190805190602001906200006f929190620000ee565b50826002908051906020019062000088929190620000ee565b508060039080519060200190620000a1929190620000ee565b5033600660006101000a81548173ffffffffffffffffffffffffffffffffffffffff021916908373ffffffffffffffffffffffffffffffffffffffff1602179055505050505050620004df565b828054620000fc90620004a9565b90600052602060002090601f0160209004810192826200012057600085556200016c565b82601f106200013b57805160ff19168380011785556200016c565b828001600101855582156200016c579182015b828111156200016b5782518255916020019190600101906200014e565b5b5090506200017b91906200017f565b5090565b5b808211156200019a57600081600090555060010162000180565b5090565b6000604051905090565b600080fd5b600080fd5b600080fd5b600080fd5b6000601f19601f8301169050919050565b7f4e487b7100000000000000000000000000000000000000000000000000000000600052604160045260246000fd5b6200020782620001bc565b810181811067ffffffffffffffff82111715620002295762000228620001cd565b5b80604052505050565b60006200023e6200019e565b90506200024c8282620001fc565b919050565b600067ffffffffffffffff8211156200026f576200026e620001cd565b5b6200027a82620001bc565b9050602081019050919050565b60005b83811015620002a75780820151818401526020810190506200028a565b83811115620002b7576000848401525b50505050565b6000620002d4620002ce8462000251565b62000232565b905082815260208101848484011115620002f357620002f2620001b7565b5b6200030084828562000287565b509392505050565b600082601f83011262000320576200031f620001b2565b5b815162000332848260208601620002bd565b91505092915050565b6000819050919050565b62000350816200033b565b81146200035c57600080fd5b50565b600081519050620003708162000345565b92915050565b600080600080600060a08688031215620003955762000394620001a8565b5b600086015167ffffffffffffffff811115620003b657620003b5620001ad565b5b620003c48882890162000308565b955050602086015167ffffffffffffffff811115620003e857620003e7620001ad565b5b620003f68882890162000308565b945050604086015167ffffffffffffffff8111156200041a5762000419620001ad565b5b620004288882890162000308565b93505060606200043b888289016200035f565b925050608086015167ffffffffffffffff8111156200045f576200045e620001ad565b5b6200046d8882890162000308565b9150509295509295909350565b7f4e487b7100000000000000000000000000000000000000000000000000000000600052602260045260246000fd5b60006002820490506001821680620004c257607f821691505b60208210811415620004d957620004d86200047a565b5b50919050565b61085d80620004ef6000396000f3fe60806040526004361061007b5760003560e01c80639632e7201161004e5780639632e7201461012c578063ed88c68e14610157578063ef430aa614610161578063f3ccaac01461018c5761007b565b806346c922d11461008057806348b9ef40146100ab5780634a79d50c146100d65780638da5cb5b14610101575b600080fd5b34801561008c57600080fd5b506100956101b7565b6040516100a291906105d4565b60405180910390f35b3480156100b757600080fd5b506100c0610245565b6040516100cd919061060f565b60405180910390f35b3480156100e257600080fd5b506100eb61024b565b6040516100f891906105d4565b60405180910390f35b34801561010d57600080fd5b506101166102d9565b604051610123919061066b565b60405180910390f35b34801561013857600080fd5b506101416102ff565b60405161014e919061060f565b60405180910390f35b61015f610305565b005b34801561016d57600080fd5b5061017661041f565b60405161018391906105d4565b60405180910390f35b34801561019857600080fd5b506101a16104ad565b6040516101ae91906105d4565b60405180910390f35b600180546101c4906106b5565b80601f01602080910402602001604051908101604052809291908181526020018280546101f0906106b5565b801561023d5780601f106102125761010080835404028352916020019161023d565b820191906000526020600020905b81548152906001019060200180831161022057829003601f168201915b505050505081565b60045481565b60008054610258906106b5565b80601f0160208091040260200160405190810160405280929190818152602001828054610284906106b5565b80156102d15780601f106102a6576101008083540402835291602001916102d1565b820191906000526020600020905b8154815290600101906020018083116102b457829003601f168201915b505050505081565b600660009054906101000a900473ffffffffffffffffffffffffffffffffffffffff1681565b60055481565b6005546004541161034b576040517f08c379a000000000000000000000000000000000000000000000000000000000815260040161034290610759565b60405180910390fd5b600660009054906101000a900473ffffffffffffffffffffffffffffffffffffffff1673ffffffffffffffffffffffffffffffffffffffff166108fc349081150290604051600060405180830381858888f193505050501580156103b3573d6000803e3d6000fd5b5034600560008282546103c691906107a8565b925050819055503373ffffffffffffffffffffffffffffffffffffffff167fe6add99d06d9ad7fc456e746aa162eed6211c5002ef2dacdd67b8d2016822fba34426040516104159291906107fe565b60405180910390a2565b6002805461042c906106b5565b80601f0160208091040260200160405190810160405280929190818152602001828054610458906106b5565b80156104a55780601f1061047a576101008083540402835291602001916104a5565b820191906000526020600020905b81548152906001019060200180831161048857829003601f168201915b505050505081565b600380546104ba906106b5565b80601f01602080910402602001604051908101604052809291908181526020018280546104e6906106b5565b80156105335780601f1061050857610100808354040283529160200191610533565b820191906000526020600020905b81548152906001019060200180831161051657829003601f168201915b505050505081565b600081519050919050565b600082825260208201905092915050565b60005b8381101561057557808201518184015260208101905061055a565b83811115610584576000848401525b50505050565b6000601f19601f8301169050919050565b60006105a68261053b565b6105b08185610546565b93506105c0818560208601610557565b6105c98161058a565b840191505092915050565b600060208201905081810360008301526105ee818461059b565b905092915050565b6000819050919050565b610609816105f6565b82525050565b60006020820190506106246000830184610600565b92915050565b600073ffffffffffffffffffffffffffffffffffffffff82169050919050565b60006106558261062a565b9050919050565b6106658161064a565b82525050565b6000602082019050610680600083018461065c565b92915050565b7f4e487b7100000000000000000000000000000000000000000000000000000000600052602260045260246000fd5b600060028204905060018216806106cd57607f821691505b602082108114156106e1576106e0610686565b5b50919050565b7f526571756972656420416d6f756e74207265636569766564206279207468652060008201527f6170706c6963616e742e00000000000000000000000000000000000000000000602082015250565b6000610743602a83610546565b915061074e826106e7565b604082019050919050565b6000602082019050818103600083015261077281610736565b9050919050565b7f4e487b7100000000000000000000000000000000000000000000000000000000600052601160045260246000fd5b60006107b3826105f6565b91506107be836105f6565b9250827fffffffffffffffffffffffffffffffffffffffffffffffffffffffffffffffff038211156107f3576107f2610779565b5b828201905092915050565b60006040820190506108136000830185610600565b6108206020830184610600565b939250505056fea2646970667358221220e7358f06d90e493686bedabfed3ddf2e9123da9730aa4a0f63eded5c3171d5d464736f6c63430008090033",
  "linkReferences": {},
  "deployedLinkReferences": {}
}